{
  "_format": "hh-sol-artifact-1",
  "contractName": "Incrementer",
  "sourceName": "contracts/incrementor.sol",
  "abi": [
    {
      "inputs": [],
      "stateMutability": "nonpayable",
      "type": "constructor"
    },
    {
      "inputs": [],
      "name": "increment",
      "outputs": [],
      "stateMutability": "nonpayable",
      "type": "function"
    },
    {
      "inputs": [],
      "name": "value",
      "outputs": [
        {
          "internalType": "uint256",
          "name": "",
          "type": "uint256"
        }
      ],
      "stateMutability": "view",
      "type": "function"
    }
  ],
  "bytecode": "0x6080604052348015600f57600080fd5b5060008081905550610151806100266000396000f3fe608060405234801561001057600080fd5b50600436106100365760003560e01c80633fa4f2451461003b578063d09de08a14610059575b600080fd5b610043610063565b604051610050919061009d565b60405180910390f35b610061610069565b005b60005481565b600160008082825461007b91906100e7565b92505081905550565b6000819050919050565b61009781610084565b82525050565b60006020820190506100b2600083018461008e565b92915050565b7f4e487b7100000000000000000000000000000000000000000000000000000000600052601160045260246000fd5b60006100f282610084565b91506100fd83610084565b9250828201905080821115610115576101146100b8565b5b9291505056fea26469706673582212205a7ac7bf91077fb421e36dae7990f118adb1dba5ad182e6e2027dc5207967ba564736f6c634300081c0033",
  "linkReferences": {},
  "deployedLinkReferences": {}
}